:100000000C947C000C94A4000C94A4000C94A40008
:100010000C94A4000C94A4000C94A4000C94A400D0
:100020000C94A4000C94AA000C94A4000C94A400BA
:100030000C94A4000C94E6010C94A4000C94A4006D
:100040000C94CA050C94A4000C9483080C94B50875
:100050000C94A4000C94A4000C94A4000C94A40090
:100060000C94A4000C94A4000000000800020100FD
:100070000003040700000000000000000102040863
:100080001020408001020408102001020408102002
:10009000040404040404040402020202020203032E
:1000A0000303030300000000250028002B000000CC
:1000B0000000240027002A004E414E494E49545961
:1000C000494E46CDCCCC3D0AD7233C17B7D1387723
:1000D000CC2B329595E6241FB14F0A000020410039
:1000E00000C84200401C4620BCBE4CCA1B0E5AAE83
:1000F000C59D7400F000E50811241FBECFEFD8E0C5
:10010000DEBFCDBF11E0A0E0B1E0E4EFFAE102C054
:1001100005900D92A038B107D9F722E0A0E8B1E030
:1001200001C01D92AC3EB207E1F710E0C8EFD0E08D
:1001300004C02297FE010E94940BC43FD107C9F767
:100140000E9429090C94780D0C94000080E891E03D
:100150000C94A8051F920F920FB60F9211242F93A3
:100160008F939F93AF93BF93EF93FF9390918701EA
:1001700080918601981318C08091A801882321F1ED
:100180008091820190918301A0918401B0918501B9
:100190000196A11DB11D8093820190938301A093CC
:1001A0008401B093850110C0E0918601F0E0E8572A
:1001B000FE4F20818091860190E001968F719927F2
:1001C000809386012093B400FF91EF91BF91AF918E
:1001D0009F918F912F910F900FBE0F901F901895A8
:1001E000CF92DF92EF92FF92CF93DF93C090010105
:1001F000D0900201E0900301F09004019E2D8D2D1E
:100200007C2D662720EB34E040E050E00E94470B55
:100210003093AE012093AD01C0910501D09106014C
:100220009E01A0EBB4E00E94690BE7E0660F771F28
:10023000881F991FEA95D1F7A70196010E94470BE5
:100240003093AC012093AB019E01A8E9B8E00E9475
:10025000690BF7E0660F771F881F991FFA95D1F792
:10026000A70196010E94470B3093AA012093A90190
:1002700089E691E09093810180938001DF91CF9195
:10028000FF90EF90DF90CF90089568EE73E080E0EC
:1002900090E00E94430661E08DE00E94080768EE4E
:1002A00073E080E090E00E94430660E08DE00C94F3
:1002B0000807CF92DF92EF92FF9261E08DE00E94FB
:1002C000CF0660E08DE00E945F0526E040E855E241
:1002D00060E070E08DE492E00E9421080E94B80185
:1002E0000E94A6000E940A040E94C2058DE492E0CA
:1002F0000E943E07892B19F40E947F05F7CF8DE4F9
:1003000092E00E9457070E941C04882379F30E9400
:1003100014066B017C016091E0017091E101809114
:10032000E2019091E3016B5F7F4F8F4F9F4F25E07C
:1003300030E040E050E00E94470B9B01AC01A8E197
:10034000BCEF0E948D0B68577C4E8F4F9F4F6C0DFA
:100350007D1D8E1D9F1D6093AF017093B001809332
:10036000B1019093B201FF90EF90DF90CF9008958C
:1003700061E089E00E94CF0660E089E00E945F05AD
:100380001092B7011092B80181E090E0A0E0B0E0D7
:100390008093B3019093B401A093B501B093B601DB
:1003A00082E080938000E1E8F0E088E1808385EDE1
:1003B00095E49093870080938600AFE6B0E08C913F
:1003C00081608C9380818160808308951F920F9259
:1003D0000FB60F9211242F933F934F935F936F9318
:1003E0007F938F939F93AF93BF93EF93FF937894F3
:1003F0008091B3019091B401A091B501B091B60183
:100400000197A109B1098093B3019093B401A0931E
:10041000B501B093B6018091B3019091B401A09160
:10042000B501B091B601892B8A2B8B2B99F5809160
:10043000B70191E089278093B7018091B8018823A3
:10044000A1F08091B701882381F0809180008068BD
:100450008093800085ED95E49093890080938800D7
:100460008FE793E0A0E0B0E00DC0809180008F772F
:100470008093800060E089E00E945F058EEF96E047
:10048000A0E0B0E08093B3019093B401A093B501D4
:10049000B093B601FF91EF91BF91AF919F918F9172
:1004A0007F916F915F914F913F912F910F900FBE70
:1004B0000F901F901895FC012081233589F48091BD
:1004C0000E0290910F02A0911002B0911102B0584B
:1004D00080930E0290930F02A0931002B09311022A
:1004E000209308021092FF010895FC012081273516
:1004F00089F480910A0290910B02A0910C02B091B4
:100500000D02B05880930A0290930B02A0930C0244
:10051000B0930D022093FF011092000208956CE049
:1005200071E00E949C0B892B21F481E080932B02C7
:10053000089510922B0208950E94980B6093F30186
:100540007093F4018093F5019093F60108950E9451
:10055000980B6093EF017093F0018093F1019093F9
:10056000F20108950E94980B6093EB017093EC01E7
:100570008093ED019093EE010895CF92DF92EF9278
:10058000FF920F931F93CF93DF9300D000D0CDB78E
:10059000DEB78C01FC0101900020E9F73197E81BE0
:1005A000F90B359730F1FC018081898381818A8341
:1005B00082818B831C82CE0101960E94980B6B0175
:1005C0007C01C80103960E94980B20E030E040E7D0
:1005D00052E40E94CA099B01AC01C701B6010E9406
:1005E000620960930A0270930B0280930C0290934D
:1005F0000D0248E050E0B80187EF91E00E94AC0B9B
:100600001092FF010F900F900F900F90DF91CF91FC
:100610001F910F91FF90EF90DF90CF900895CF92B0
:10062000DF92EF92FF920F931F93CF93DF9300D04F
:100630001F92CDB7DEB78C01FC0101900020E9F7D5
:100640003197E81BF90B349720F1FC0180818983F5
:1006500081818A831B82CE0101960E94980B6B01D7
:100660007C01C80102960E94980B20E030E040E730
:1006700052E40E94CA099B01AC01C701B6010E9465
:10068000620960930E0270930F02809310029093A0
:10069000110247E050E0B80181E092E00E94AC0B0B
:1006A000109208020F900F900F90DF91CF911F9141
:1006B0000F91FF90EF90DF90CF900895CF92DF924F
:1006C000EF92FF9246E050E0BC0186E192E00E948A
:1006D000AC0B10921C0220911602332727FD309597
:1006E000205331096AE0629FC001639F900D11247D
:1006F00020911702332727FD309520533109820FAF
:10070000931F7CE3789FA001799F500D11242091C5
:100710001802332727FD309520533109629FC0010D
:10072000639F900D112420911902332727FD3095E6
:1007300020533109820F931F789F6001799FD00C5D
:100740001124EE24D7FCE094FE2C20911A023327CA
:1007500027FD309520533109629FC001639F900DA2
:10076000112420911B02332727FD30952053310996
:10077000820F931FAA2797FDA095BA2FC80ED91EE6
:10078000EA1EFB1E2CE330E0DA010E94780BC60E55
:10079000D71EE81EF91EC0921202D0921302E092F8
:1007A0001402F0921502FF90EF90DF90CF90089521
:1007B000CF93DF93EC0167E071E00E949C0B892BE3
:1007C00019F481E090E009C06EE071E0CE010E9472
:1007D0009C0B892B39F482E090E090934302809344
:1007E000420204C01092430210924202DF91CF9164
:1007F00008959FEB980F963010F4875308959FE962
:10080000980F963010F48755089580538A3008F079
:1008100080E0089565E171E084EE91E00E94A50B0F
:100820006CE171E08FEC91E00E94A50B65E271E054
:1008300085EC91E00C94A50BCF93DF938D3059F0AC
:100840001CF48A3041F012C18A3209F4BCC08C32E7
:1008500009F4C1C00BC180912E0290912F02892B07
:1008600011F480E09CC090910001809140029813A7
:10087000F8CFC0914202D0914302C130D10541F07E
:10088000C230D10559F466E172E08DE192E004C016
:1008900066E172E084E292E00E94A50BCD2B09F3A1
:1008A0006DE172E084E292E00E949C0B892BC9F614
:1008B00080912B028823A9F266E172E084EE91E038
:1008C0000E94A50B8091120290911302A091140234
:1008D000B09115028093E0019093E101A093E201B1
:1008E000B093E30180910E0290910F02A09110024B
:1008F000B09111028093DC019093DD01A093DE01A1
:10090000B093DF0180910A0290910B02A0910C023A
:10091000B0910D028093D8019093D901A093DA0190
:10092000B093DB0161E072E08FEC91E00E94A50BD7
:1009300067EF71E085EC91E00E94A50B8091F301D7
:100940009091F401A091F501B091F6018093C1015D
:100950009093C201A093C301B093C4018091EF01B1
:100960009091F001A091F101B091F2018093BD014D
:100970009093BE01A093BF01B093C0018091EB01A1
:100980009091EC01A091ED01B091EE018093B9013D
:100990009093BA01A093BB01B093BC0181E0109287
:1009A000410294E2909300011092400210922D02B5
:1009B00010922C0210922F0210922E0210924302DB
:1009C0001092420279C091E090934102909100010F
:1009D000982790930001E0912C02F0912D02E05DA8
:1009E000FD4F108290910001982790930001209173
:1009F00042023091430280912E0290912F022130C9
:100A0000310569F02230310599F0232B09F51816CC
:100A10001906F4F080E392E00E94D80319C08F30E9
:100A20009105B4F4FC01EE0FFF1FE95BFE4F08C017
:100A30008C3091056CF4FC01EE0FFF1FE15DFE4F61
:100A40000190F081E02D309719F080E392E0099554
:100A500080912E0290912F02019690932F02809305
:100A60002E0210922D0210922C0225C0909141026C
:100A7000992359F00E94F9039091400220E1929F3E
:100A8000800D11248093400216C020912C023091D9
:100A90002D022F30310578F4F901E05DFD4F8083A0
:100AA0002F5F3F4F30932D0220932C029091000135
:100AB00098279093000180E0DF91CF91089590E016
:100AC000FC01E458FF4F2491FC01E057FF4FE491F3
:100AD000EE23A1F0F0E0EE0FFF1FEC55FF4FA591C4
:100AE000B4919FB7611105C0F8948C912095822331
:100AF00003C0F8948C91822B8C939FBF089583B789
:100B0000817F83BF83B7816083BFE4E6F0E08081AB
:100B1000816080838081846080838081806880831D
:100B200060E08DE00E945F0583B7816083BF889598
:100B300083B78E7F83BF61E08DE00E945F0583B73E
:100B40008E7F83BFE4E6F0E080818071808308952A
:100B500061E084E00E94CF0660E084E00E945F05CF
:100B600061E083E00C94CF0660E084E00C945F05C4
:100B700061E084E00E945F0569E170E080E090E060
:100B80000C94430661E086E00E94CF0661E087E0B6
:100B90000C94CF061F920F920FB60F9211242F9331
:100BA0003F938F939F93AF93BF9380914502909112
:100BB0004602A0914702B09148023091440223E0DE
:100BC000230F2D3720F40196A11DB11D05C026E885
:100BD000230F0296A11DB11D20934402809345026C
:100BE00090934602A0934702B09348028091490235
:100BF00090914A02A0914B02B0914C020196A11D26
:100C0000B11D8093490290934A02A0934B02B09386
:100C10004C02BF91AF919F918F913F912F910F9077
:100C20000FBE0F901F9018952FB7F8946091450252
:100C30007091460280914702909148022FBF08951B
:100C40003FB7F8948091490290914A02A0914B02DB
:100C5000B0914C0226B5A89B05C02F3F19F0019614
:100C6000A11DB11D3FBF6627782F892F9A2F620FD4
:100C7000711D811D911D42E0660F771F881F991F0E
:100C80004A95D1F70895CF92DF92EF92FF92CF93DA
:100C9000DF936B017C010E942006EB01C114D1049B
:100CA000E104F10489F00E9460090E9420066C1B97
:100CB0007D0B683E734090F381E0C81AD108E108CB
:100CC000F108C851DC4FEACFDF91CF91FF90EF9050
:100CD000DF90CF900895789484B5826084BD84B508
:100CE000816084BD85B5826085BD85B5816085BD27
:100CF000EEE6F0E0808181608083E1E8F0E0108240
:100D0000808182608083808181608083E0E8F0E080
:100D1000808181608083E1EBF0E08081846080836A
:100D2000E0EBF0E0808181608083EAE7F0E08081A1
:100D30008460808380818260808380818160808301
:100D40008081806880831092C1000895833081F093
:100D500028F4813099F08230A1F008958730A9F00D
:100D60008830B9F08430D1F4809180008F7D03C049
:100D7000809180008F7780938000089584B58F776D
:100D800002C084B58F7D84BD08958091B0008F77B7
:100D900003C08091B0008F7D8093B0000895CF9301
:100DA000DF9390E0FC01E458FF4F2491FC01E057F1
:100DB000FF4F8491882349F190E0880F991FFC012F
:100DC000E255FF4FA591B4918C559F4FFC01C59101
:100DD000D4919FB7611108C0F8948C91209582231B
:100DE0008C93888182230AC0623051F4F8948C91EC
:100DF000322F309583238C938881822B888304C083
:100E0000F8948C91822B8C939FBFDF91CF910895A2
:100E10000F931F93CF93DF931F92CDB7DEB7282F89
:100E200030E0F901E859FF4F8491F901E458FF4F90
:100E30001491F901E057FF4F04910023C9F0882372
:100E400021F069830E94A6066981E02FF0E0EE0F91
:100E5000FF1FEC55FF4FA591B4919FB7F8948C916B
:100E6000611103C01095812301C0812B8C939FBF1A
:100E70000F90DF91CF911F910F910895FC01818D0B
:100E8000228D90E0805C9F4F821B91098F73992780
:100E90000895FC01918D828D981731F0828DE80FB5
:100EA000F11D858D90E008958FEF9FEF0895FC016F
:100EB000918D828D981761F0828DDF01A80FB11D91
:100EC0005D968C91928D9F5F9F73928F90E00895B5
:100ED0008FEF9FEF08958BED98E0892B49F080E02C
:100EE00090E0892B29F00E94DB0881110C9400000E
:100EF0000895FC01848DDF01A80FB11DA35ABF4FD7
:100F00002C91848D90E001968F739927848FA68908
:100F1000B7892C93A089B1898C9180648C93938D2F
:100F2000848D981306C00288F389E02D80818F7D1F
:100F300080830895CF93DF93EC01888D8823C9F0D7
:100F4000EA89FB89808185FD05C0A889B9898C91D2
:100F500086FD0FC00FB607FCF5CF808185FFF2CF6D
:100F6000A889B9898C9185FFEDCFCE010E947907C0
:100F7000E7CFDF91CF910895CF92DF92FF920F9349
:100F80001F93CF93DF931F92CDB7DEB76C0181E043
:100F9000D60158968C9358975B969C915B975C967C
:100FA0008C915C97981307C05096ED91FC915197E6
:100FB000808185FD2EC0F601038D10E00F5F1F4F6D
:100FC0000F731127F02EF601848DF81211C00FB6A1
:100FD00007FCF9CFD6015096ED91FC915197808195
:100FE00085FFF1CFC60169830E9479076981EBCF44
:100FF000838DE80FF11DE35AFF4F6083D6015B96A6
:101000000C935B975296ED91FC915397808180628F
:101010000CC0D6015696ED91FC915797608350967F
:10102000ED91FC91519780818064808381E090E014
:101030000F90DF91CF911F910F91FF90DF90CF9094
:101040000895BF92CF92DF92EF92FF92CF93DF93FA
:10105000EC016A017B01B22EE889F98982E0808384
:10106000411581EE580761057105A1F060E079E056
:101070008DE390E0A70196010E94470B21503109B2
:10108000410951095695479537952795211580E1D6
:10109000380798F0E889F989108260E874E88EE1F1
:1010A00090E0A70196010E94470B215031094109A8
:1010B00051095695479537952795EC85FD853083E1
:1010C000EE85FF852083188EEC89FD89B082EA8940
:1010D000FB89808180618083EA89FB8980818860C7
:1010E0008083EA89FB89808180688083EA89FB8923
:1010F00080818F7D8083DF91CF91FF90EF90DF9093
:10110000CF90BF9008951F920F920FB60F921124A7
:101110002F938F939F93EF93FF93E0915D02F09154
:101120005E028081E0916302F091640282FD12C050
:101130009081809166028F5F8F7320916702821782
:1011400051F0E0916602F0E0E35BFD4F958F8093F4
:10115000660201C08081FF91EF919F918F912F9145
:101160000F900FBE0F901F9018951F920F920FB601
:101170000F9211242F933F934F935F936F937F931D
:101180008F939F93AF93BF93EF93FF938DE492E080
:101190000E947907FF91EF91BF91AF919F918F913D
:1011A0007F916F915F914F913F912F910F900FBE63
:1011B0000F901F9018958DE492E00E943E0721E069
:1011C000892B09F420E0822F08951092500210928A
:1011D0004F0288EE93E0A0E0B0E08093510290933C
:1011E0005202A0935302B093540283E791E090938C
:1011F0004E0280934D0285EC90E090935A028093CA
:10120000590284EC90E090935C0280935B0280EC46
:1012100090E090935E0280935D0281EC90E0909369
:10122000600280935F0282EC90E090936202809370
:10123000610286EC90E090936402809363021092C6
:101240006602109267021092680210926902089575
:1012500008950E946B060E9428090E945901CBE65E
:10126000D7E00E9445012097E1F30E946B07F9CF78
:10127000CF92DF92EF92FF920F931F93CF93DF9362
:101280006C017A01EB01E60EF71E00E010E0CE15CE
:10129000DF0561F06991D601ED91FC910190F0813B
:1012A000E02DC6010995080F191FF1CFC801DF9184
:1012B000CF911F910F91FF90EF90DF90CF90089505
:1012C00008955058BB27AA270ED044C135D130F01D
:1012D0003AD120F031F49F3F11F41EF42AC10EF4EC
:1012E000E095E7FB20C1E92F46D180F3BA176207EA
:1012F00073078407950718F071F49EF55EC10EF42C
:10130000E0950B2EBA2FA02D0B01B90190010C0115
:10131000CA01A0011124FF27591B99F0593F50F42D
:10132000503E68F11A16F040A22F232F342F442785
:10133000585FF3CF469537952795A795F04053957D
:10134000C9F77EF41F16BA0B620B730B840BBAF04D
:101350009150A1F0FF0FBB1F661F771F881FC2F7B8
:101360000EC0BA0F621F731F841F48F487957795CC
:101370006795B795F7959E3F08F0B3CF9395880F83
:1013800008F09927EE0F979587950895A8D008F44F
:1013900081E008950CD0DEC0D6D040F0CDD030F042
:1013A00021F45F3F19F0BFC0511108C1C2C0E3D0A2
:1013B00098F39923C9F35523B1F3951B550BBB271C
:1013C000AA2762177307840738F09F5F5F4F220FC9
:1013D000331F441FAA1FA9F333D00E2E3AF0E0E8C2
:1013E00030D091505040E695001CCAF729D0FE2F0E
:1013F00027D0660F771F881FBB1F261737074807A0
:10140000AB07B0E809F0BB0B802DBF01FF27935855
:101410005F4F2AF09E3F510568F085C0CFC05F3F07
:10142000ECF3983EDCF3869577956795B795F7953D
:101430009F5FC9F7880F911D9695879597F9089535
:10144000E1E0660F771F881FBB1F621773078407D1
:10145000BA0720F0621B730B840BBA0BEE1F88F7E0
:10146000E0950895E89409C097FB3EF49095809527
:10147000709561957F4F8F4F9F4F9923A9F0F92F5A
:1014800096E9BB279395F695879577956795B795D8
:10149000F111F8CFFAF4BB0F11F460FF1BC06F5FBE
:1014A0007F4F8F4F9F4F16C0882311F096E911C0D0
:1014B000772321F09EE8872F762F05C0662371F0F1
:1014C00096E8862F70E060E02AF09A95660F771F05
:1014D000881FDAF7880F9695879597F90895990FE1
:1014E0000008550FAA0BE0E8FEEF16161706E807EE
:1014F000F907C0F012161306E407F50798F0621B0F
:10150000730B840B950B39F40A2661F0232B242BE3
:10151000252B21F408950A2609F4A140A6958FEF02
:10152000811D811D089597F99F6780E870E060E054
:1015300008959FEF80EC089500240A94161617066C
:1015400018060906089500240A94121613061406B4
:1015500005060895092E0394000C11F4882352F017
:10156000BB0F40F4BF2B11F460FF04C06F5F7F4FCF
:101570008F4F9F4F089557FD9058440F551F59F0B6
:101580005F3F71F04795880F97FB991F61F09F3F70
:1015900079F087950895121613061406551FF2CF99
:1015A0004695F1DF08C0161617061806991FF1CFE9
:1015B00086957105610508940895E894BB27662710
:1015C0007727CB0197F908950BD0C4CFB5DF28F06A
:1015D000BADF18F0952309F0A6CFABCF1124EECFD8
:1015E000CADFA0F3959FD1F3950F50E0551F629F7E
:1015F000F001729FBB27F00DB11D639FAA27F00D6C
:10160000B11DAA1F649F6627B00DA11D661F829F92
:101610002227B00DA11D621F739FB00DA11D621F77
:10162000839FA00D611D221F749F3327A00D611D94
:10163000231F849F600D211D822F762F6A2F112476
:101640009F5750408AF0E1F088234AF0EE0FFF1FC9
:10165000BB1F661F771F881F91505040A9F79E3F00
:10166000510570F060CFAACF5F3FECF3983EDCF3FA
:10167000869577956795B795F795E7959F5FC1F73D
:10168000FE2B880F911D9695879597F90895A1E2F5
:101690001A2EAA1BBB1BFD010DC0AA1FBB1FEE1FEC
:1016A000FF1FA217B307E407F50720F0A21BB30B37
:1016B000E40BF50B661F771F881F991F1A9469F7B3
:1016C00060957095809590959B01AC01BD01CF010F
:1016D0000895A29FB001B39FC001A39F700D811D0B
:1016E0001124911DB29F700D811D1124911D08952B
:1016F0000E94690BB7FF0895821B930B08950E9407
:10170000690BA59F900DB49F900DA49F800D911D16
:1017100011240895B7FF0C947F0B0E947F0B821B4E
:10172000930B0895EE0FFF1F0590F491E02D09949F
:10173000662777270C94BB0BFB01DC018D91019090
:1017400080190110D9F3990B0895FB01DC01019078
:101750000D920020E1F70895FB01DC01415050405B
:1017600048F001900D920020C9F701C01D92415030
:101770005040E0F70895A0E0B0E0E1ECFBE00C940D
:10178000470D8B016115710521F0DB018C931196DA
:101790009C93EC015E01BFEFAB1ABB0A7501C880D8
:1017A0008C2D90E00E941E0D892B11F0E501F2CFE7
:1017B000EDE2CE1208C07E01F2E0EF0EF11CC9800E
:1017C000DD24D39409C02BE2C21205C07E0142E0A1
:1017D000E40EF11CC980D12CE701219743E050E0D1
:1017E00060EC70E0CE010E94260D892BC1F4239697
:1017F00045E050E06BEB70E0CE010E94260D892B96
:1018000009F425960115110519F0D801CD93DC9343
:10181000D11006C160E070E080E89FE70AC143E0B4
:1018200050E068EB70E0CE010E94260D892B59F440
:101830000115110509F4F9C0B2E0EB0EF11CF80135
:10184000F182E082F2C0F70160E070E0CB01C0E01D
:10185000D0E07F01A0EDAA2EAC0C29E02A1530F1D2
:101860004D2D4260B42E2D2D2870D2FE04C02111C2
:1018700025C0219623C021112197A5E0B0E09B014E
:10188000AC010E947F0B660F771F881F991F6A0D9E
:10189000711D811D911D6839A9E97A078A07A9E19F
:1018A0009A0760F0BD2DB660BB2E08C02EEFA212C5
:1018B0000AC0D3FC50C04D2D4860B42E3196D701DC
:1018C000CC90DB2CC6CF2C2D2F7D253409F043C0C6
:1018D000A081AD3241F4BD2DB061DB2E7F0122E04D
:1018E000E20EF11C0CC07F01AB3231F04FEFE41A75
:1018F000F40A21E030E006C0A2E0EA0EF11CA1816A
:1019000022E030E0A053AA3018F0E21AF30A23C014
:10191000F70120E030E02038BCE03B075CF4A9018F
:10192000440F551F440F551F240F351F220F331F1F
:101930002A0F311DAF014F5F5F4F7A01A081A05385
:10194000AA3010F4FA01E7CFD4FE03C031952195F7
:101950003109C20FD31FD1FE09C00115110531F0A5
:10196000E1E0EE1AF108D801ED92FC920E94320AF1
:101970002D2D2370233019F04B015C0106C04B0163
:101980005C01B7FAB094B7F8B09420E030E0A90158
:10199000C501B4010E94C609882309F43EC0D7FFDF
:1019A00006C0D195C195D10907ED10E002C00FEE38
:1019B00010E06801B8E1CB1AD10890E2E92EF12CD1
:1019C000CE15DF0574F0F8012591359145915491BC
:1019D000C501B4010E94E40A4B015C01CE19DF0984
:1019E000EFCF04501109F594E7940C151D0541F74C
:1019F0008A2D880F8B2D881F8F3F49F020E030E023
:101A0000A901C501B4010E94C609811106C082E284
:101A100090E09093EB028093EA02C501B40109C003
:101A200060E070E080E89FEF04C060E070E080EC70
:101A30009FE7CDB7DEB7ECE00C94630D91111EC0AB
:101A4000803219F089508550D0F70895FB01DC01F0
:101A50004150504088F08D9181341CF08B350CF44E
:101A6000805E659161341CF06B350CF4605E861B02
:101A7000611171F3990B0895881BFCCF9927882772
:101A800008952F923F924F925F926F927F928F9222
:101A90009F92AF92BF92CF92DF92EF92FF920F93FD
:101AA0001F93CF93DF93CDB7DEB7CA1BDB0B0FB607
:101AB000F894DEBF0FBECDBF09942A8839884888C4
:101AC0005F846E847D848C849B84AA84B984C8845A
:101AD000DF80EE80FD800C811B81AA81B981CE0F51
:101AE000D11D0FB6F894DEBF0FBECDBFED01089536
:041AF000F894FFCF98
:101AF4002424F400000002244750474741002447AF
:101B040050524D43003030303030300030303030BF
:101B14002E30304E0030303030302E303045000022
:101B2400005E038F020F035B02BD027502A7029CD5
:101B34000200000000000000005E0300000000003E
:101B4400000000000000000000B2020000000000DD
:101B5400000000000000000000A805B805B405005E
:101B6400000000BC0738093E07570749079A0700D9
:00000001FF
